:1000000016C030C02FC02EC02DC02CC02BC02AC09F
:1000100029C028C027C026C025C024C023C022C0B4
:1000200021C06364696E6F70737578585B0011242A
:100030001FBECFE5D2E0DEBFCDBF10E0A0E6B0E04E
:10004000E6E7F0E102C005900D92AE3FB107D9F7A7
:1000500021E0AEEFB0E001C01D92A830B207E1F799
:1000600013D007C8CDCF5D9BFECF8CB908955F9BA1
:10007000FECF8CB1089586E880BD1BB883E389B9B3
:1000800010BC88E18AB90895CF93DF9300D01F9206
:10009000CDB7DEB71ABA8FEF87BBEDDF0F2EFEEFBD
:1000A0008F2EF0E09F2EF02D0F2EF5EB6F2EF0E04F
:1000B0007F2EF02D2E0123E0420E511C02EC10E0A9
:1000C000CE0101961C015E0192E0A90EB11C60E018
:1000D00070E083E390E067D0F4019383828367E369
:1000E00070E080E090E05FD0F4019183808326E6A9
:1000F00030E03F932F93A1D07F926F929ED05F927A
:100100004F921F930F93ACD00FB6F894DEBF0FBE83
:10011000CDBF019729F4EB80F12CF0E3EF1AF10841
:100120003F922F921F930F939BD025EC30E03F938B
:100130002F9383D0BF92AF921F930F9391D00FB69E
:10014000F894DEBF0FBECDBF019729F4CA80D12C31
:10015000F0E3CF1AD108C7018C0D9D1D9F938F939B
:1001600023ED30E03F932F9368D0C7018C199D0990
:100170009F938F93E1EEF0E0FF93EF935ED0EC9CC2
:10018000C001ED9C900DFC9C900D11249F938F93CA
:100190008FEE90E09F938F9350D00FB6F894DEBF10
:1001A0000FBECDBF94CF0F931F93CF93DF930097D4
:1001B00031F46115710519F480E090E039C08B01CC
:1001C000EC016EE070E081E090E0BDD4FC01892B91
:1001D00099F380E883830115110571F01387028775
:1001E00081E883838091FE009091FF00892B21F4A8
:1001F000F093FF00E093FE002097C9F0D187C087FD
:100200008381826083838091000190910101892B19
:1002100071F4F0930101E09300018091020190914B
:100220000301892B21F4F0930301E0930201CF0134
:10023000DF91CF911F910F910895A0E0B0E0E2E22D
:10024000F1E0F0C6AE014B5F5F4FFA016191719131
:10025000AF01809100019091010115D0E2E0FEC64E
:10026000A0E0B0E0E5E3F1E0DDC6AE014B5F5F4F3B
:10027000FA0161917191AF018091FE009091FF00B0
:1002800061D3E2E0EBC6ABE0B0E0E8E4F1E0BAC68F
:100290006C017B018A01FC0117821682838181FF38
:1002A000BFC1CE0101963C01F6019381F70193FD98
:1002B000859193FF81917F01882309F4ADC1853237
:1002C00039F493FD859193FF81917F01853221F46B
:1002D000B60190E0E1D5E8CF912C212C312CFFE143
:1002E000F315D8F08B3279F038F4803279F083321C
:1002F000A1F4232D20611DC08D3261F0803369F49B
:10030000232D216016C0832D8260382EE32DE460FA
:100310003E2E2AC0F32DF8601DC037FC2DC020ED05
:10032000280F2A3040F08E32B9F436FC75C1232DE7
:100330002064322E19C036FE06C08AE0989E200D39
:100340001124922E11C0EAE02E9E200D1124222E9F
:10035000F32DF0623F2E08C08C3621F4832D806887
:10036000382E02C0883641F4F70193FD859193FF42
:1003700081917F018111B3CF982F9F7D9554933048
:1003800028F40C5F1F4F9FE399830DC0833631F033
:10039000833771F0833509F055C020C0F8018081A2
:1003A00089830E5F1F4F88248394912C530112C0C0
:1003B0002801F2E04F0E511CF801A080B18036FEFA
:1003C00003C0692D70E002C06FEF7FEFC5011BD540
:1003D0004C018201F32DFF773F2E15C0280122E04A
:1003E000420E511CF801A080B18036FE03C0692D79
:1003F00070E002C06FEF7FEFC501F3D44C01F32D25
:10040000F0683F2E820133FC19C0822D90E08816DF
:100410009906A0F4B60180E290E03ED52A94F5CF8B
:10042000F50137FC859137FE81915F01B60190E0BF
:1004300033D521102A9421E0821A91088114910465
:1004400079F7E1C0843611F0893639F5F80137FEC5
:1004500007C060817181828193810C5F1F4F08C04A
:1004600060817181072E000C880B990B0E5F1F4F66
:10047000F32DFF763F2E97FF09C0909580957095DC
:1004800061957F4F8F4F9F4FF0683F2E2AE030E0FD
:10049000A30157D5882E861844C0853731F4232D03
:1004A0002F7EB22E2AE030E025C0932D997FB92E01
:1004B0008F36C1F018F4883579F0AEC0803719F066
:1004C000883721F0A9C0E92FE061BE2EB4FE0DC02F
:1004D000FB2DF460BF2E09C034FE0AC0292F266010
:1004E000B22E06C028E030E005C020E130E002C0B6
:1004F00020E132E0F801B7FE07C06081718182819E
:1005000093810C5F1F4F06C06081718180E090E095
:100510000E5F1F4FA30115D5882E8618FB2DFF7780
:100520003F2E36FE0DC0232D2E7FA22E891458F4A7
:1005300034FE0BC032FC09C0832D8E7EA82E05C070
:10054000B82CA32C03C0B82C01C0B92CA4FE0FC03A
:10055000FE01E80DF11D8081803321F49A2D997EF2
:10056000A92E09C0A2FE06C0B394B39404C08A2D7C
:10057000867809F0B394A3FC10C0A0FE06C0B214A4
:1005800080F4280C922C9B180DC0B21458F4B601BC
:1005900080E290E081D4B394F8CFB21418F42B1811
:1005A00002C0982C212CA4FE0FC0B60180E390E07D
:1005B00073D4A2FE16C0A1FC03C088E790E002C07D
:1005C00088E590E0B6010CC08A2D867851F0A1FE36
:1005D00002C08BE201C080E2A7FC8DE2B60190E090
:1005E0005BD4891430F4B60180E390E055D49A943A
:1005F000F8CF8A94F301E80DF11D8081B60190E0F7
:100600004BD48110F6CF222009F44ECEB60180E201
:1006100090E042D42A94F7CFF6018681978102C0F8
:100620008FEF9FEF2B96E2E109C520FD09C0FC0189
:1006300023FD05C022FF02C0738362835183408380
:10064000089544FD17C046FD17C0AB01BC01DA0197
:10065000FB01AA0FBB1FEE1FFF1F1094D1F74A0F1B
:100660005B1F6E1F7F1FCB01BA01660F771F881FAC
:10067000991F09C033E001C034E0660F771F881F5F
:10068000991F3150D1F7620F711D811D911D089581
:100690000F931F93CF93DF938C01C801BFD3EC015D
:1006A00097FD06C08BD3892BC1F7B801CE0130D49A
:1006B000CE01DF91CF911F910F9108958F929F925C
:1006C000AF92BF92EF92FF920F931F93CF93DF935E
:1006D0008C01D62F7A01B22EA1D39C0133272B3265
:1006E000310531F02D32310559F48B2D8068B82E4B
:1006F000D15011F480E061C0C80190D397FDFACFCA
:10070000CB2DCD7F2B2D2073F9F48033E9F4AA246F
:10071000AA94AD0E09F43EC0C80180D397FD3AC03B
:100720009C012F7D33272835310541F4C264D25016
:1007300089F1C80173D397FF07C02CC0B6FE02C071
:10074000C26001C0C261DA2D812C912C540120EDD0
:10075000280F283078F0C4FF03C0B801D9D317C0E0
:100760002A3040F0C6FFF9CF2F7D3FEE320F3630F2
:10077000A0F727504C2FC501B40163DF4B015C018A
:10078000C260D15051F0C80149D397FFE0CFC1FDFD
:1007900004C0B0CF812C912C5401C7FF08C0B09485
:1007A000A09490948094811C911CA11CB11C2C2FAE
:1007B000B501A401C70139DF81E0DF91CF911F911D
:1007C0000F91FF90EF90BF90AF909F908F90089502
:1007D000A0E2B0E0EDEEF3E018C45C01962E7A01E1
:1007E000F9018E010F5F1F4F680180E2D8011D9251
:1007F0008A95E9F7D50113968C9080E090E0612C02
:10080000712C30E061E070E083FC259183FE219142
:100810008F01522E211103C080E090E090C02E3550
:1008200011F4009751F1432F50E0481759073CF459
:100830002D3559F12D3219F4772009F103C07720B5
:1008400009F468C0452D469546954695D601A40FF6
:10085000B11D452D47708B0102C0000F111F4A9535
:10086000E2F7A8015C91452B4C93651459F056149E
:1008700010F45394E7CF5A94E5CF31E004C07724C5
:10088000739401C0712C0196BFCF772019F08E812F
:1008900080628E83311103C08824839417C0F601CF
:1008A0009E012F5D3F4F8081809581932E173F07DA
:1008B000D1F7F2CFE114F10429F0D7018C93F701BD
:1008C00031967F019A94812C9920E9F0C501A6D236
:1008D00097FD17C0FC01FF2723E0F595E7952A95C2
:1008E000E1F7EC0DFD1D208130E0AC01477055278C
:1008F00002C0359527954A95E2F720FDDBCFB5017B
:1009000007D3811089CFE114F10411F0D7011C92B3
:10091000C80115C0422F469546954695D601A40FAD
:10092000B11D422F47708B0102C0000F111F4A9565
:10093000E2F7A8015C91452B4C93622EA4CFA096C0
:10094000EFE07FC3A0E0B0E0E7EAF4E05EC36C0153
:10095000EB015A01FC0117821682512CF601E3804B
:10096000FE01E3FC8591E3FE8191182FEF018823BE
:1009700009F4E0C090E022D2892B19F0C60188DE8C
:10098000EDCF153241F4FE01E3FC1591E3FE119128
:10099000EF01153271F4C60141D297FDC9C0412F54
:1009A00050E09C01332724173507C1F2B601B0D2BD
:1009B000C1C01A3239F4E3FC1591E3FE1191EF0145
:1009C00001E001C000E0F12C20ED210F2A3078F485
:1009D00002606F2D70E080E090E040E232DEF62EA3
:1009E000FE01E3FC1591E3FE1191EF01EDCF01FF54
:1009F00003C0F11003C09EC0FF24FA94183619F00A
:100A00001C3651F010C0FE01E3FC1591E3FE11917C
:100A1000EF01183641F408600460FE01E3FC159113
:100A2000E3FE1191EF01112309F484C0612F70E0FE
:100A300082E290E0CBD1892B09F47CC000FD07C095
:100A4000F50180809180C50102965C0102C0812C75
:100A5000912C1E3649F4F6014681578160E070E022
:100A6000202FC401E2DD7ACF1336A1F401FD02C0CC
:100A7000FF24F394C601D2D197FD5AC0811491048A
:100A800029F0F4018083C40101964C01FA94F1101D
:100A9000F1CF4AC01B3551F49E01A4016F2DC60150
:100AA00097DEEC01892B09F03FC039C0C601F0DDAB
:100AB00097FD3EC01F3649F128F4143621F119364E
:100AC00039F125C0133771F01537E9F020C08114D2
:100AD000910429F0F4016082C40101964C01FA945A
:100AE000FF2059F0C6019AD13C0197FD06C066D19E
:100AF000892B69F3B601C3010BD281149104A1F0D3
:100B0000F401108211C0006203C0006101C00064E2
:100B1000202FA4016F2DC601D1DD811105C0F60182
:100B20008381807329F406C000FD18CF539416CF3B
:100B3000552019F0852D90E002C08FEF9FEFCDB7C3
:100B4000DEB7EFE07EC20F931F93CF93DF93869FB4
:100B50008001879F100D969F100D1124C8010DD0A4
:100B6000EC01009721F0A80160E070E045D1CE01D2
:100B7000DF91CF911F910F9108950F931F93CF9302
:100B8000DF938230910510F482E090E0E09106015D
:100B9000F091070120E030E0A0E0B0E0309719F1DB
:100BA000408151810281138148175907C8F0841789
:100BB000950769F4109731F012960C9312971396DB
:100BC0001C9327C0009306011093070122C0211532
:100BD000310519F04217530718F49A01BD01EF01CE
:100BE000DF01F801DBCF21153105F9F0281B390BA6
:100BF0002430310580F48A819B816115710521F0D3
:100C0000FB019383828304C09093070180930601C4
:100C1000FE01329644C0FE01E20FF31F81939193CF
:100C200022503109398328833AC020910401309140
:100C30000501232B41F42091620030916300309331
:100C4000050120930401209160003091610021157D
:100C5000310541F42DB73EB74091640050916500D5
:100C6000241B350BE0910401F0910501E217F30715
:100C7000A0F42E1B3F0B2817390778F0AC014E5F0C
:100C80005F4F2417350748F04E0F5F1F5093050143
:100C9000409304018193919302C0E0E0F0E0CF0122
:100CA000DF91CF911F910F910895CF93DF9300971C
:100CB00009F481C0FC01329713821282A0910601CF
:100CC000B0910701109781F420813181820F931F29
:100CD00020910401309105012817390751F5F0934F
:100CE0000501E093040167C0ED0120E030E0CE177C
:100CF000DF0740F44A815B819E0141155105F1F007
:100D0000EA01F5CFD383C28340815181840F951FBF
:100D1000C817D90759F488819981840F951F0296C5
:100D2000918380838A819B819383828321153105FE
:100D300029F4F0930701E09306013DC0E901FB832C
:100D4000EA8349915991C40FD51FEC17FD0761F44F
:100D500080819181840F951F0296E9019983888390
:100D6000828193819B838A83E0E0F0E012968D91EB
:100D70009C911397009719F0FD01DC01F7CF8D913D
:100D80009C9111979D012E5F3F4F820F931F2091E1
:100D90000401309105012817390769F4309729F4C7
:100DA000109207011092060102C013821282B093C2
:100DB0000501A0930401DF91CF91089591111FC106
:100DC000803219F089508550D0F70895FC010590C4
:100DD000061621F00020D9F7C00108953197CF0100
:100DE0000895FC010590615070400110D8F780957E
:100DF00090958E0F9F1F0895DC0101C06D934150A7
:100E00005040E0F70895FC016150704001900110DE
:100E1000D8F7809590958E0F9F1F0895CF93DF93FD
:100E2000EC012B8120FF33C026FF0AC02F7B2B83D0
:100E30008E819F8101969F838E838A8190E029C055
:100E400022FF0FC0E881F9818081082E000C990BE8
:100E5000009719F420622B831AC03196F983E88336
:100E60000EC0EA85FB85099597FF09C02B81019685
:100E700011F080E201C080E1822B8B8308C02E81BB
:100E80003F812F5F3F4F3F832E83992702C08FEF13
:100E90009FEFDF91CF9108950F931F93CF93DF932F
:100EA000FB01238121FD03C08FEF9FEF2CC022FFA8
:100EB00016C046815781248135814217530744F477
:100EC000A081B1819D012F5F3F4F318320838C939F
:100ED000268137812F5F3F4F3783268314C08B01D4
:100EE000EC01FB010084F185E02D0995892BE1F6E9
:100EF000D80116968D919C911797019617969C9301
:100F00008E931697CE01DF91CF911F910F91089587
:100F1000FB01238120FF12C026FD10C08F3F3FEF51
:100F2000930761F082832F7D20642383268137819C
:100F30002150310937832683992708958FEF9FEF3A
:100F40000895FA01AA27283051F1203181F1E8945F
:100F50006F936E7F6E5F7F4F8F4F9F4FAF4FB1E0AC
:100F60003ED0B4E03CD0670F781F891F9A1FA11DA7
:100F7000680F791F8A1F911DA11D6A0F711D811DA8
:100F8000911DA11D20D009F468943F912AE0269F6D
:100F900011243019305D3193DEF6CF010895462FCC
:100FA0004770405D4193B3E00FD0C9F7F6CF462FAD
:100FB0004F70405D4A3318F0495D31FD4052419316
:100FC00002D0A9F7EACFB4E0A695979587957795D3
:100FD0006795BA95C9F700976105710508959B015A
:100FE000AC010A2E06945795479537952795BA95E3
:100FF000C9F7620F731F841F951FA01D08959927BD
:10100000882708952F923F924F925F926F927F921E
:101010008F929F92AF92BF92CF92DF92EF92FF9208
:101020000F931F93CF93DF93CDB7DEB7CA1BDB0BB4
:101030000FB6F894DEBF0FBECDBF09942A88398859
:1010400048885F846E847D848C849B84AA84B98460
:10105000C884DF80EE80FD800C811B81AA81B9816C
:10106000CE0FD11D0FB6F894DEBF0FBECDBFED0180
:061070000895F894FFCF83
:10107600000008012000466F726D6174746564207B
:10108600696E7075742F6F757470757420766961EA
:101096002073657269616C20706F72742E200A0D60
:1010A60020506C6561736520656E74657220747777
:1010B6006F20696E74656765722076616C756573FD
:1010C6003A200A0D00496E74656765722061203DFD
:1010D60020002563000A496E7465676572206220E8
:1010E6003D200061202B2062203D202564200A0D32
:1010F6000061202D2062203D202564200A0D00611C
:0E110600202A2062203D202564200A0D0000D2
:00000001FF
