S00C00006C6162322E73726563B7
S113000010C02AC029C03AC027C026C025C024C0B9
S113001023C022C021C020C01FC01EC01DC01CC0E0
S11300201BC011241FBECFE5D2E0DEBFCDBF10E060
S1130030A0E6B0E0E2EBFAE002C005900D92AA3926
S1130040B107D9F720E0AAE9B0E001C01D92AD3AAA
S1130050B207E1F736D02BC5D3CF5D9BFECF8CB969
S113006008955F9BFECF8CB1089586E880BD1BB8D0
S113007083E389B910BC88E18AB908951F920F926D
S11300800FB60F9211248F939F93AF93BF9384B5B0
S113009095B5A0E0B0E080939F009093A000A0935A
S11300A0A100B093A2001DBC1CBC81E080939A0007
S11300B0BF91AF919F918F910F900FBE0F901F90A2
S11300C018958FEF87BB1ABA3098CFDF60E070E0E5
S11300D08DE290E094D0C3EAD0E09B838A8361E30D
S11300E070E080E090E08BD0998388831FBC81EC22
S11300F08EBD88E089BF78940F2EF0E48F2EF2E451
S11301009F2EFFE0AF2EB12CF02DC6E6D0E08091FB
S11301109A008823E1F3C0909F00D090A000E09063
S1130120A100F090A20010929A008D2D809588BBBA
S1130130A701960144275527C501B40122D0209375
S11301409B0030939C0040939D0050939E008091AF
S11301509B0090919C00A0919D00B0919E00BF9344
S1130160AF939F938F93DF92CF92DF93CF9391D0EE
S11301708DB79EB708960FB6F8949EBF0FBE8DBF7D
S1130180C6CF052E97FB16F400940FD057FD05D06B
S113019014D007FC02D046F408C050954095309521
S11301A021953F4F4F4F5F4F0895909580957095DF
S11301B061957F4F8F4F9F4F0895A1E21A2EAA1B7E
S11301C0BB1BFD010DC0AA1FBB1FEE1FFF1FA21703
S11301D0B307E407F50720F0A21BB30BE40BF50B00
S11301E0661F771F881F991F1A9469F76095709589
S11301F0809590959B01AC01BD01CF0108950F93AB
S11302001F93CF93DF93009731F46115710519F4AF
S113021080E090E039C08B01EC016EE070E081E099
S113022090E01CD2FC01892B99F380E883830115AB
S1130230110571F01387028781E883838091A300FD
S11302409091A400892B21F4F093A400E093A300DF
S11302502097C9F0D187C08783818260838380918E
S1130260A5009091A600892B71F4F093A600E09369
S1130270A5008091A7009091A800892B21F4F09308
S1130280A800E093A700CF01DF91CF911F910F91B8
S11302900895A0E0B0E0EEE4F1E0E2C3AE014B5F0C
S11302A05F4FFA0161917191AF018091A500909126
S11302B0A60002D0E2E0F0C3ABE0B0E0E1E6F1E09A
S11302C0BFC36C017B018A01FC0117821682838102
S11302D081FFBFC1CE0101963C01F6019381F70174
S11302E093FD859193FF81917F01882309F4ADC12A
S11302F0853239F493FD859193FF81917F01853295
S113030021F4B60190E002D3E8CF912C212C312CBA
S1130310FFE1F315D8F08B3279F038F4803279F0BC
S11303208332A1F4232D20611DC08D3261F080330E
S113033069F4232D216016C0832D8260382EE32DAD
S1130340E4603E2E2AC0F32DF8601DC037FC2DC09A
S113035020ED280F2A3040F08E32B9F436FC75C1F6
S1130360232D2064322E19C036FE06C08AE0989EE2
S1130370200D1124922E11C0EAE02E9E200D11248E
S1130380222EF32DF0623F2E08C08C3621F4832DEB
S11303908068382E02C0883641F4F70193FD8591B8
S11303A093FF81917F018111B3CF982F9F7D955445
S11303B0933028F40C5F1F4F9FE399830DC083365D
S11303C031F0833771F0833509F055C020C0F8014E
S11303D0808189830E5F1F4F88248394912C53015D
S11303E012C02801F2E04F0E511CF801A080B18028
S11303F036FE03C0692D70E002C06FEF7FEFC501C8
S11304007AD24C018201F32DFF773F2E15C02801CB
S113041022E0420E511CF801A080B18036FE03C0D8
S1130420692D70E002C06FEF7FEFC50152D24C011D
S1130430F32DF0683F2E820133FC19C0822D90E029
S113044088169906A0F4B60180E290E05FD22A945F
S1130450F5CFF50137FC859137FE81915F01B60137
S113046090E054D221102A9421E0821A9108811438
S1130470910479F7E1C0843611F0893639F5F80131
S113048037FE07C060817181828193810C5F1F4FA9
S113049008C060817181072E000C880B990B0E5FD8
S11304A01F4FF32DFF763F2E97FF09C0909580953F
S11304B0709561957F4F8F4F9F4FF0683F2E2AE0D4
S11304C030E0A3015FD2882E861844C0853731F40A
S11304D0232D2F7EB22E2AE030E025C0932D997F64
S11304E0B92E8F36C1F018F4883579F0AEC0803754
S11304F019F0883721F0A9C0E92FE061BE2EB4FEBF
S11305000DC0FB2DF460BF2E09C034FE0AC0292F94
S11305102660B22E06C028E030E005C020E130E0BD
S113052002C020E132E0F801B7FE07C060817181AA
S1130530828193810C5F1F4F06C06081718180E0CE
S113054090E00E5F1F4FA3011DD2882E8618FB2D4D
S1130550FF773F2E36FE0DC0232D2E7FA22E891449
S113056058F434FE0BC032FC09C0832D8E7EA82EB5
S113057005C0B82CA32C03C0B82C01C0B92CA4FE10
S11305800FC0FE01E80DF11D8081803321F49A2D06
S1130590997EA92E09C0A2FE06C0B394B39404C0E8
S11305A08A2D867809F0B394A3FC10C0A0FE06C07F
S11305B0B21480F4280C922C9B180DC0B21458F479
S11305C0B60180E290E0A2D1B394F8CFB21418F44B
S11305D02B1802C0982C212CA4FE0FC0B60180E376
S11305E090E094D1A2FE16C0A1FC03C088E790E07D
S11305F002C088E590E0B6010CC08A2D867851F0DF
S1130600A1FE02C08BE201C080E2A7FC8DE2B6012C
S113061090E07CD1891430F4B60180E390E076D187
S11306209A94F8CF8A94F301E80DF11D8081B60104
S113063090E06CD18110F6CF222009F44ECEB601A1
S113064080E290E063D12A94F7CFF6018681978106
S113065002C08FEF9FEF2B96E2E10EC20F931F9320
S1130660CF93DF93869F8001879F100D969F100D77
S11306701124C8010DD0EC01009721F0A80160E01D
S113068070E032D1CE01DF91CF911F910F91089587
S11306900F931F93CF93DF938230910510F482E080
S11306A090E0E091AB00F091AC0020E030E0A0E0FD
S11306B0B0E0309719F140815181028113814817CC
S11306C05907C8F08417950769F4109731F012960A
S11306D00C93129713961C9327C00093AB001093AE
S11306E0AC0022C02115310519F04217530718F444
S11306F09A01BD01EF01DF01F801DBCF21153105BE
S1130700F9F0281B390B2430310580F48A819B8150
S11307106115710521F0FB019383828304C09093DA
S1130720AC008093AB00FE01329644C0FE01E20FA0
S1130730F31F8193919322503109398328833AC05E
S11307402091A9003091AA00232B41F4209162004A
S1130750309163003093AA002093A9002091600097
S1130760309161002115310541F42DB73EB7409118
S1130770640050916500241B350BE091A900F091B1
S1130780AA00E217F307A0F42E1B3F0B2817390722
S113079078F0AC014E5F5F4F2417350748F04E0FD9
S11307A05F1F5093AA004093A9008193919302C0C4
S11307B0E0E0F0E0CF01DF91CF911F910F91089518
S11307C0CF93DF93009709F481C0FC013297138221
S11307D01282A091AB00B091AC00109781F42081FB
S11307E03181820F931F2091A9003091AA0028170C
S11307F0390751F5F093AA00E093A90067C0ED0111
S113080020E030E0CE17DF0740F44A815B819E018F
S113081041155105F1F0EA01F5CFD383C28340813C
S11308205181840F951FC817D90759F4888199817C
S1130830840F951F0296918380838A819B81938381
S113084082832115310529F4F093AC00E093AB00C9
S11308503DC0E901FB83EA8349915991C40FD51F37
S1130860EC17FD0761F480819181840F951F029636
S1130870E90199838883828193819B838A83E0E061
S1130880F0E012968D919C911397009719F0FD0159
S1130890DC01F7CF8D919C9111979D012E5F3F4F05
S11308A0820F931F2091A9003091AA0028173907BD
S11308B069F4309729F41092AC001092AB0002C096
S11308C013821282B093AA00A093A900DF91CF9162
S11308D00895FC010590615070400110D8F780958F
S11308E090958E0F9F1F0895DC0101C06D934150B8
S11308F05040E0F70895FC016150704001900110F0
S1130900D8F7809590958E0F9F1F08950F931F938E
S1130910CF93DF93FB01238121FD03C08FEF9FEF72
S11309202CC022FF16C0468157812481358142178D
S1130930530744F4A081B1819D012F5F3F4F318360
S113094020838C93268137812F5F3F4F3783268303
S113095014C08B01EC01FB010084F185E02D0995A5
S1130960892BE1F6D80116968D919C9117970196E3
S113097017969C938E931697CE01DF91CF911F917A
S11309800F910895FA01AA27283051F1203181F1FD
S1130990E8946F936E7F6E5F7F4F8F4F9F4FAF4F83
S11309A0B1E03ED0B4E03CD0670F781F891F9A1F96
S11309B0A11D680F791F8A1F911DA11D6A0F711D4A
S11309C0811D911DA11D20D009F468943F912AE056
S11309D0269F11243019305D3193DEF6CF0108953E
S11309E0462F4770405D4193B3E00FD0C9F7F6CF6F
S11309F0462F4F70405D4A3318F0495D31FD405237
S1130A00419302D0A9F7EACFB4E0A69597958795CC
S1130A1077956795BA95C9F70097610571050895AB
S1130A209B01AC010A2E0694579547953795279557
S1130A30BA95C9F7620F731F841F951FA01D0895EF
S1130A402F923F924F925F926F927F928F929F92DA
S1130A50AF92BF92CF92DF92EF92FF920F931F93C8
S1130A60CF93DF93CDB7DEB7CA1BDB0B0FB6F89479
S1130A70DEBF0FBECDBF09942A88398848885F84B9
S1130A806E847D848C849B84AA84B984C884DF802A
S1130A90EE80FD800C811B81AA81B981CE0FD11D0E
S1130AA00FB6F894DEBF0FBECDBFED010895F894E4
S1050AB0FFCF72
S1130AB20000AD0020005369676E616C207065729E
S1130AC2696F64203D2025752075732C2073696736
S1130AD26E616C206672657175656E6379203D2066
S10D0AE2257520487A200D0A000053
S9030000FC
