S00C00006C6162352E73726563B4
S113000010C022C021C020C01FC01EC01DC01CC003
S11300101BC01AC019C018C017C016C015C014C020
S113002013C011241FBECFE5D2E0DEBFCDBF10E068
S1130030A0E6B0E0EEEBF0E002C005900D92AC3C1F
S1130040B107D9F714D039C0DBCFFC0120812223BA
S113005069F09DE02A3019F45D9BFECF9CB9819133
S11300605D9BFECF8CB920812111F4CF089510BC83
S113007087E689B982E08BB988E18AB986E880BDD0
S113008081B38F7381BB18B880E690E0DEDF84E82B
S113009090E0DBDF8CE990E0D8DF459B04C082EB85
S11300A090E0D3DF03C08FEB90E0CFDF87EA91E6E7
S11100B00197F1F700C00000F0CFF894FFCFE5
S11300BE0A41546D6567613835313520416E616C86
S11300CE6F6720436F6D70617261746F7220546537
S11300DE73740A0041494E30203D205044362C2082
S11300EE41494E31203D205044370A0031323030E0
S11300FE2D382D4E2D31206F6E2050755454590AC3
S113010E0A0041494E30203E2041494E310A0041F9
S10F011E494E30203C2041494E310A007B
S9030000FC
