:1000000010C017C016C015C014C013C012C011C054
:1000100010C00FC00EC00DC00CC00BC00AC009C07C
:1000200008C011241FBECFE5D2E0DEBFCDBF37D060
:1000300079C0E6CF803319F480EC88BB0895813312
:1000400019F489EF88BB0895823319F484EA88BBD8
:100050000895833319F480EB88BB0895843319F431
:1000600089E988BB0895853319F482E988BB08952E
:10007000863319F482E888BB0895873319F488EF32
:1000800088BB0895883319F480E888BB08958933C4
:1000900019F480E988BB08958FEF88BB08951ABAD8
:1000A0008FEF87BB10EFDFEFCFEB0FED0F2EFFEEE3
:1000B000EF2EF02DF12C1ABBDBBBCBBB000089B3BC
:1000C00083FF1AC082FF1AC081FF1AC00BBB000059
:1000D00089B383FF17C082FF17C081FF17C080FF5D
:1000E00017C0EBBA000089B383FF14C082FF14C0AD
:1000F00081FF14C08F2D13C081E311C084E30FC0B2
:1001000087E30DC082E30BC085E309C088E307C025
:1001100080E305C083E303C086E301C089E390E088
:0801200089DFC9CFF894FFCF7D
:00000001FF
